:04000000ADEF00F070
:1000080000C016F001C015F0F2A03FD081AE1DD09F
:10001800320E1724016E000E1820026E01C017F070
:1000280002C018F00250070802E10150D00805E2AA
:10003800D00E1E6E070E1F6E04D017C01EF018C01B
:100048001FF01EC017F01FC018F081AC1DD0320E73
:10005800175C016E000E1858026E01C017F002C03E
:1000680018F0000E025C02E1640E015C05E2640E09
:10007800206E000E216E04D017C020F018C021F0A9
:1000880020C017F021C018F0F290F2A40AD01B0E7D
:10009800226E000E236E190E246E000E256E06D8F1
:0C00A800F29416C000F015C001F0110029
:1000B40022C0E9FF23C0EAFF200EEE24006E000EEA
:1000C400EE20016E22C0E1FF23C0E2FF00C0E6FF84
:1000D40001C0E6FF24C0E9FF25C0EAFF24C0E1FF18
:1000E40025C0E2FF000EE626030EE62224C0E9FF47
:1000F40025C0EAFFEECF01F0EECF02F00250030874
:1001040002E10150E8081EE322C0E9FF23C0EAFF30
:10011400010EEE24006E000EEE20016E22C0E1FFFF
:1001240023C0E2FF00C0E6FF01C0E6FF24C0E9FFF0
:1001340025C0EAFF24C0E1FF25C0E2FFE80EE65E29
:06014400030EE65A120052
:10014A000900F5CFE6FF0006FBE10106F9E112001E
:10015A00F40E176E010E186E196A1A6A1B6A1C6A67
:10016A00010E1D6E956A010E8C6EC00E936E0F0104
:10017A00396BC70ED56EC00E626EF286F290F28AA5
:10018A00F294F28E1C50185C02E11B50175C1BE2C1
:10019A001B6A1C6A8C50800A02E11D6A05D08C50C9
:1001AA00010A02E1010E1D6E1D5207E08CCF00F01C
:1001BA000036009000C08CFF06D08CCF00F00032D1
:0A01CA00009E00C08CFFDED7FFD7B7
:020000040030CA
:0D000100231F3CFFBF81FF0FC00FE00F4029
:00000001FF
