:040000002EEF02F0ED
:1000080000C017F001C016F002C015F09EAC19D060
:10001800C4CF2AF0000E2B6E2A362A902B362A36A9
:100028002A902B36060E016EC3CF00F0015004E073
:100038000032009EFF0FFBD700502A26000E2B220D
:100048009E9C9EA41ED0BDA009D0BFCF29F0286ACF
:10005800BE502826000E2922BD9012D0BFCF01F035
:10006800006ABE500026000E01222850005C286E4F
:1000780029500158296EBD80010E186E000E196EA8
:100088009E949EA002D0C2829E9017C000F016C017
:0800980001F015C002F0110097
:0A00A000210E0D6E0D2EFED712008A
:1000AA000F0E0C6E470E0D6E0D2EFED70C2EFCD7C2
:0600BA000000000012002E
:0600C00000000000120028
:1000C600086A096A100E0C6E0134083609360450A7
:1000D600085E0550D8A0053C095ED8B007D004508C
:1000E60008260550D8B0053C0926D89000360136BA
:0600F6000C2EEAD71200F7
:1000FC0049BE02D08A9601D08A8649BC02D08A9425
:10010C0001D08A8449BA02D08A9201D08A8249B835
:10011C0002D08A9001D08A802CB002D08A8801D07B
:10012C008A988A8AC7DF8A9A49B602D08A9601D001
:10013C008A8649B402D08A9401D08A8449B202D00A
:10014C008A9201D08A8249B002D08A9001D08A80EA
:10015C002CB002D08A8801D08A988A8AABDF8A9A1E
:0C016C002CA002D09CDF01D095DF120017
:10017800466A050E465C0AE246504424E16E000ECB
:100188004520E26E200EE66E462AF3D746504424F8
:10019800E16E000E4520E26EE66A460646504424AB
:1001A800476E000E4520486E0A0E046E000E056E5E
:1001B80042C000F043C001F082DF08C000F009C06F
:1001C80001F0300E002647C0E1FF48C0E2FF00C042
:1001D800E6FF0A0E046E000E056E42C000F043C032
:1001E80001F06DDF00C042F001C043F0000E0118BD
:1001F80002E1000E001801E102D04606CFD7120036
:0C0208002C9042C049F076DF2C801200E0
:10021400939A939893909392939493968A9A8A98A4
:100224008A968A948A928A903EDF3DDF3CDF8A82F6
:100234008A808A8A43DF8A9A36DF8A8A3FDF8A9AEB
:1002440032DF8A8A3BDF8A9A2EDF8A908A8A36DFF7
:100254008A9A29DF8A8A32DF8A9A8A928A868A8AE5
:100264002DDF8A9A20DF8A968A808A8A27DF8A9AF3
:100274008A908A8A23DF8A9A16DF8A8A1FDF8A9AFB
:100284008A808A8A1BDF8A9A0EDF8A908A8A16DF1E
:100294008A9A8A868A848A828A808A8A0FDF8A9ADC
:0602A40002DF2C801200B5
:1002AA000900F5CFE6FF0006FBE10106F9E11200BD
:1002BA000FD0800E386E19D0C00E386E16D0940E3C
:1002CA00386E13D0D40E386E10D0800E386E0DD022
:1002DA003850010AEEE03850020AEEE03850030ABC
:1002EA00EEE03850040AEEE0F0D73904006E3850D8
:1002FA00002600C038F000C049F0FBDE2C903C6AB2
:10030A003C503A24E96E000E3B20EA6EEE520BE0B6
:10031A003C503A24E96E000E3B20EA6EEECF42F0E2
:0A032A006EDF3C2AEDD72C80120094
:100334003E6A3F6A38C040F039C041F0800E391837
:10034400006E800E005C02E1000E385C0BE2010ED0
:100354003E6E000E3F6E38500008406E39C041F0CA
:10036400000E415640C042F041C043F03AC044F050
:100374003BC045F0FFDE060E3C6E000E3D6E000EE7
:10038400006E3D50005C02E13C50000819E23C5014
:100394003A24E16E3D503B20E26E010E3C5C006E5F
:1003A400000E3D58016E00503A24E96E01503B2086
:1003B400EA6EEECFE6FF010E3C5E000E3D5ADFD73B
:1003C4003AC0E1FF3BC0E2FF200EE66E3E503F1014
:1003D4001AE03C6A3D6A3C503A24E96E3D503B20A9
:1003E400EA6EEE50200A03E13C4A3D2AF4D7010E9E
:1003F4003C5E000E3D5A3C503A24E16E3D503B2099
:08040400E26E2D0EE66E1200FF
:10040C000B6A0A6A096A00500402F4CF09F0F3CFB0
:10041C0008F001500502F4CF0BF0F3CF0AF00050B6
:10042C000502F3500926F4500A22E86A0B22015007
:10043C000402F3500926F4500A22E86A0B2208C081
:10044C0000F009C001F00AC002F00BC003F012006A
:10045C00BFEC02F01A0E346E000E356E1F0E366EA7
:10046C00000E376E3D0EC26EC16AC09EC080C09237
:10047C00C094C096C098C08ABD96BD84BD92BD8004
:10048C00730ECD6E956A0F013A95BEDE010E496E64
:10049C002FDE0C0E496E2CDE010E386E010E396EFD
:1004AC0034C03AF035C03BF002DF020E386E010E5C
:1004BC00396E36C03AF037C03BF0F9DE9D8C9D8426
:1004CC009D809E9C9E949E90F28CF28EC2822B50AC
:1004DC00271802E126502A181FE02AC026F02BC04C
:1004EC0027F02AC000F02BC001F0050E046E000EA0
:1004FC00056E86DF00C038F001C039F02D0E3A6E63
:10050C00000E3B6E11DF010E386E0B0E396E2D0E88
:10051C003A6E000E3B6ECBDE2950251802E12450BA
:10052C0028181BE01850191018E028C024F029C016
:10053C0025F028C038F029C039F02D0E3A6E000E87
:10054C003B6EF2DE020E386E0B0E396E2D0E3A6ECD
:0E055C00000E3B6EACDE186A196AB9D7FFD7E5
:10057E0010EE18F0140E006E010E016E6A0EF66E7D
:0E058E00050EF76E000EF86E55EC01F012002F
:02056A0000008F
:05056C004144433A0088
:050571004343503A0075
:02057600000083
:02057800000081
:02057A0000007F
:02057C0000007D
:020000040030CA
:0D000100231F3CFFBF81FF0FC00FE00F4029
:00000001FF
