:0400000041EF02F0DA
:1000080000C01BF001C01AF002C019F004C018F0BB
:1000180005C017F008C016F009C015F09EAC40D016
:10002800C2B42AD02EC030F02FC031F0C4CF02F0B5
:10003800000E036E02360290033602360290033633
:10004800060E016EC3CF00F0015004E00032009E9E
:10005800FF0FFBD7000E016E02500026035001224D
:10006800050E046E000E056EECD800C02EF001C01F
:100078002FF0C282C28413D035C033F036C034F0BA
:10008800C4CF00F0000E016E130E046E000E056E54
:10009800D8D800C035F001C036F0C282C2949E9C08
:1000A8001BC000F01AC001F019C002F018C004F01B
:0E00B80017C005F016C008F015C009F01100C1
:1000C6000F0E0C6E470E0D6E0D2EFED70C2EFCD7A6
:0600D60000000000120012
:0A00DC00210E0D6E0D2EFED712004E
:0600E60000000000120002
:1000EC0053BE02D08A9601D08A8653BC02D08A9421
:1000FC0001D08A8453BA02D08A9201D08A8253B832
:10010C0002D08A9001D08A8032B002D08A8801D085
:10011C008A988A8AE2DF8A9A53B602D08A9601D0EC
:10012C008A8653B402D08A9401D08A8453B202D006
:10013C008A9201D08A8253B002D08A9001D08A80F0
:10014C0032B002D08A8801D08A988A8AC6DF8A9A0D
:0C015C0032A002D0B2DF01D0BBDF1200E5
:10016800086A096A100E0C6E013408360936045004
:10017800085E0550D8A0053C095ED8B007D00450E9
:1001880008260550D8B0053C0926D8900036013617
:060198000C2EEAD7120054
:10019E00506A050E505C0AE250504E24E16E000E7D
:1001AE004F20E26E200EE66E502AF3D750504E24AA
:1001BE00E16E000E4F20E26EE66A500650504E245D
:1001CE00516E000E4F20526E0A0E046E000E056E1A
:1001DE004CC000F04DC001F0C0DF08C000F009C0F7
:1001EE0001F0300E002651C0E1FF52C0E2FF00C008
:1001FE00E6FF0A0E046E000E056E4CC000F04DC0F8
:10020E0001F0ABDF00C04CF001C04DF0000E011844
:10021E0002E1000E001801E102D05006CFD7120005
:0C022E0032904CC053F05BDF32801200B5
:10023A000900F5CFE6FF0006FBE10106F9E112002D
:10024A000B6A0A6A096A00500402F4CF09F0F3CF74
:10025A0008F001500502F4CF0BF0F3CF0AF000507A
:10026A000502F3500926F4500A22E86A0B220150CB
:10027A000402F3500926F4500A22E86A0B2208C045
:10028A0000F009C001F00AC002F00BC003F012002E
:10029A00939A939893909392939493968A9A8A981E
:1002AA008A968A948A928A9009DF08DF07DF8A820F
:1002BA008A808A8A13DF8A9A01DF8A8A0FDF8A9AFA
:1002CA00FDDE8A8A0BDF8A9AF9DE8A908A8A06DF3D
:1002DA008A9AF4DE8A8A02DF8A9A8A928A868A8AC5
:1002EA00FDDE8A9AEBDE8A968A808A8AF7DE8A9A05
:1002FA008A908A8AF3DE8A9AE1DE8A8AEFDE8A9A0D
:10030A008A808A8AEBDE8A9AD9DE8A908A8AE6DE2F
:10031A008A9A8A868A848A828A808A8ADFDE8A9A86
:06032A00CDDE328012005E
:10033000486A496A42C04AF043C04BF0800E4318F5
:10034000006E800E005C02E1000E425C0BE2010ECA
:10035000486E000E496E425000084A6E43C04BF092
:10036000000E4B564AC04CF04BC04DF044C04EF00E
:1003700045C04FF014DF060E466E000E476E000EAD
:10038000006E4750005C02E14650000819E24650FA
:100390004424E16E47504520E26E010E465C006E3B
:1003A000000E4758016E00504424E96E015045206C
:1003B000EA6EEECFE6FF010E465E000E475ADFD72B
:1003C00044C0E1FF45C0E2FF200EE66E48504910F0
:1003D0001AE0466A476A46504424E96E4750452071
:1003E000EA6EEE50200A03E1464A472AF4D7010E8E
:1003F000465E000E475A46504424E16E4750452061
:08040000E26E2D0EE66E120003
:100408000FD0800E426E19D0C00E426E16D0940ED8
:10041800426E13D0D40E426E10D0800E426E0DD0B4
:100428004250010AEEE04250020AEEE04250030A4E
:10043800EEE04250040AEEE0F0D74304006E42506A
:10044800002600C042F000C053F04CDE3290466AED
:1004580046504424E96E000E4520EA6EEE520BE049
:1004680046504424E96E000E4520EA6EEECF4CF06B
:0A047800DADE462AEDD732801200CA
:10048200B4EC02F0250E3E6E000E3F6E1C0E406E66
:10049200000E416E946AC294C296C298C29AC29CDD
:1004A200C080C092C094C096C098C08AC09EC280CC
:1004B2009D8C9E9CF28CF28EC282EEDE010E536EF9
:1004C20014DE0C0E536E11DE010E426E010E436EEF
:1004D2003EC044F03FC045F096DF020E426E010E70
:1004E200436E40C044F041C045F08DDF2F503118BB
:1004F20002E130502E1814E02EC08BFF2EC042F0C5
:100502002FC043F0370E446E000E456E10DF010E11
:10051200426E0B0E436E370E446E000E456E73DF55
:100522003650341802E13350351812E035C042F02B
:1005320036C043F0370E446E000E456EF8DE020EF2
:10054200426E0B0E436E370E446E000E456E5BDF3D
:04055200CDD7FFD72B
:1005680010EE1CF0120E006E010E016E560EF66EA5
:0E057800050EF76E000EF86E1DEC01F012007D
:090556005241315B6D565D3A0023
:09055F005241305B6D565D3A001B
:020000040030CA
:0D000100231F3CFFBF81FF0FC00FE00F4029
:00000001FF
