:100000000EEF00F00000000000EF00F00000000024
:0A0010000000000000000000F3D71C
:10001C00FE0E926E0F013B6BFF0E956E898083A0D6
:10002C0002D0898055D083AA0AD08970AF0E0C6E8D
:10003C00050E0D6E0D2EFED70C2EFCD749D083A8C5
:10004C0010D08970020E0B6E450E0C6EA90E0D6E43
:10005C000D2EFED70C2EFCD70B2EFAD7000000006D
:10006C0037D083A610D08970030E0B6E8A0E0C6EDF
:10007C00550E0D6E0D2EFED70C2EFCD70B2EFAD76F
:10008C000000000025D083A410D08970060E0B6EE2
:10009C00130E0C6EAD0E0D6E0D2EFED70C2EFCD766
:1000AC000B2EFAD70000000013D083A210D0897059
:1000BC000B0E0B6E260E0C6E5D0E0D6E0D2EFED7FE
:1000CC000C2EFCD70B2EFAD70000000001D0899023
:0400DC00A6D7FFD7CD
:020000040030CA
:0D000100231F3CFFBF81FF0FC00FE00F4029
:00000001FF
