:04000000C5EF01F057
:100008009EAC08D055CF1AF0000E1B6EC4CF55FF1A
:06001800C2829E9C110053
:10001E000F0E0C6E470E0D6E0D2EFED70C2EFCD74E
:06002E00000000001200BA
:0A003400210E0D6E0D2EFED71200F6
:06003E00000000001200AA
:1000440037BE02D08A9601D08A8637BC02D08A9401
:1000540001D08A8437BA02D08A9201D08A8237B812
:1000640002D08A9001D08A801CB002D08A8801D044
:100074008A988A8AE2DF8A9A37B602D08A9601D0B1
:100084008A8637B402D08A9401D08A8437B202D0E7
:100094008A9201D08A8237B002D08A9001D08A80B5
:1000A4001CB002D08A8801D08A988A8AC6DF8A9ACC
:0C00B4001CA002D0B2DF01D0BBDF1200A4
:1000C000086A096A100E0C6E0134083609360450AD
:1000D000085E0550D8A0053C095ED8B007D0045092
:1000E00008260550D8B0053C0926D89000360136C0
:0600F0000C2EEAD71200FD
:1000F600346A050E345C0AE234503224E16E000E96
:100106003320E26E200EE66E342AF3D734503224C2
:10011600E16E000E3320E26EE66A34063450322475
:10012600356E000E3320366E0A0E046E000E056E16
:1001360030C000F031C001F0C0DF08C000F009C0D7
:1001460001F0300E002635C0E1FF36C0E2FF00C0E8
:10015600E6FF0A0E046E000E056E30C000F031C0D8
:1001660001F0ABDF00C030F001C031F0000E011825
:1001760002E1000E001801E102D03406CFD71200CA
:0C0186001C9030C037F05BDF1C801200C2
:10019200939A939893909392939493968A9A8A9827
:1001A2008A968A948A928A9039DF38DF37DF8A8288
:1001B2008A808A8A43DF8A9A31DF8A8A3FDF8A9A73
:1001C2002DDF8A8A3BDF8A9A29DF8A908A8A36DF84
:1001D2008A9A24DF8A8A32DF8A9A8A928A868A8A6D
:1001E2002DDF8A9A1BDF8A968A808A8A27DF8A9A7B
:1001F2008A908A8A23DF8A9A11DF8A8A1FDF8A9A83
:100202008A808A8A1BDF8A9A09DF8A908A8A16DFA5
:100212008A9A8A868A848A828A808A8A0FDF8A9A5E
:06022200FDDE1C8012004D
:100228000900F5CFE6FF0006FBE10106F9E112003F
:100238002C6A2D6A26C02EF027C02FF0800E2718B2
:10024800006E800E005C02E1000E265C0BE2010EDF
:100258002C6E000E2D6E265000082E6E27C02FF033
:10026800000E2F562EC030F02FC031F028C032F0CB
:1002780029C033F03CDF060E2A6E000E2B6E000EEE
:10028800006E2B50005C02E12A50000819E22A5047
:100298002824E16E2B502920E26E010E2A5C006EA4
:1002A800000E2B58016E00502824E96E01502920B9
:1002B800EA6EEECFE6FF010E2A5E000E2B5ADFD75C
:1002C80028C0E1FF29C0E2FF200EE66E2C502D1059
:1002D8001AE02A6A2B6A2A502824E96E2B50292012
:1002E800EA6EEE50200A03E12A4A2B2AF4D7010EBF
:1002F8002A5E000E2B5A2A502824E16E2B50292002
:08030800E26E2D0EE66E1200FC
:100310000FD0800E266E19D0C00E266E16D0940E09
:10032000266E13D0D40E266E10D0800E266E0DD001
:100330002650010AEEE02650020AEEE02650030A9B
:10034000EEE02650040AEEE0F0D72704006E2650B7
:10035000002600C026F000C037F074DE1C902A6A28
:100360002A502824E96E000E2920EA6EEE520BE096
:100370002A502824E96E000E2920EA6EEECF30F0D4
:0A03800002DF2A2AEDD71C801200CC
:10038A00520E156E410E166E300E176E3A0E186E1C
:10039A00196A1A6A1B6A150E246E000E256E946A73
:1003AA00C26AC080C092C094C096C098C08AC09EDB
:1003BA00C2809D8C9E9CF28CF28EC28296840F0122
:1003CA0048974885FF0E526F0C0E546F556B070EF7
:1003DA00516F9694D9DE010E376E2FDE0C0E376EF2
:1003EA002CDE010E266E010E276E24C028F025C0D1
:1003FA0029F089DF000E1B1803E11A500F01551965
:10040A0014E055CF8BFF55CF26F0000E276E1D0E38
:10041A00286E000E296E0BDF010E266E0B0E276E5C
:0E042A001D0E286E000E296E6EDFE4D7FFD780
:020000040030CA
:0D000100231F3CFFBF81FF0FC00FE00F4029
:00000001FF
